:020000040000FA
:04000000FEEFFFF020
:020000040001F9
:10FE9E0012001200120001020408102003011A9F22
:10FEAE001550FF0A196F1450FF0A186FB19E1A8F62
:10FEBE001200000EC66E800EBE6E000E0401006FA4
:10FECE00900E03011A6F540E1B6F1200000E0D6E72
:10FEDE00000E0E6E000E0F6E000E106E000E096EEE
:10FEEE00000E0A6E000E0B6E000E0C6E1200A40EAB
:10FEFE00F66EFE0EF76E010EF86E01EE1BF110EEB1
:10FF0E0006F00900F5C4EEF4E550E150FAE101EE19
:10FF1E0001F1130EEE6AE806FDE1000197EFFFF026
:10FF2E00088E4FECFFF06DECFFF050ECFFF060EC44
:10FF3E00FFF0B7ECFFF0BE9E51ECFFF0030E156E16
:10FF4E00E80E146E55ECFFF0B1AEB0EFFFF0B2EF6D
:10FF5E00FFF0ABEFFFF0BE8EA0EFFFF0FEEFFFF075
:10FF6E00010E0126000E022203220422960E011813
:10FF7E00021003100410D8A4C7EFFFF0C9EFFFF072
:10FF8E00FDEFFFF021EE1BF111EE14F1050EDBC4B7
:10FF9E00E3F4E806FCE26100F8F21AF5C00E1A1658
:10FFAE00140E1124D96E050E1220DA6EDF501A12BD
:10FFBE00610068F4BEF4125007E1050E115CD8B072
:10FFCE00EBEFFFF0EDEFFFF0F1EFFFF0114A122A29
:10FFDE00F5EFFFF0000E126E000E116E000E016EA8
:10FFEE00000E026E000E036E000E046E12007EEF07
:02FFFE00FFF012
:020000040020DA
:10000000FF0FFF0FFF0FFF0FFF0FFF0FFF0FFF0F80
:10001000FF0FFF0FFF0FFF0FFF0FFF0FFF0FFF0F70
:020000040030CA
:0A0000008CFEFFFC9FFFFFFFFFFFD7
:00000001FF
