:020000040000FA
:04000000FEEFFFF020
:020000040001F9
:10FEA200120012001200152A152A2010080402015D
:10FEB20002040810200003011A9F1550FF0A196F4F
:10FEC2001450FF0A186FB19E1A8F1200000EC66EF0
:10FED200800EBE6E000E0401006F900E03011A6FB9
:10FEE200540E1B6F1200000E0D6E000E0E6E000EF1
:10FEF2000F6E000E106E000E096E000E0A6E000EDE
:10FF02000B6E000E0C6E1200088E51ECFFF074ECBA
:10FF1200FFF052ECFFF067ECFFF0B7ECFFF0BE9E93
:10FF220053ECFFF0030E156EE80E146E5CECFFF05E
:10FF3200BE8E8EEFFFF0FEEFFFF0A80EF66EFE0E05
:10FF4200F76E010EF86E01EE25F110EE10F00900C9
:10FF5200F5C4EEF4E550E150FAE101EE01F1130EC1
:10FF6200EE6AE806FDE1000185EFFFF0010E0126D1
:10FF7200000E022203220422960E01180210031020
:10FF82000410D8A4C7EFFFF0C9EFFFF0FDEFFFF0B8
:10FF920021EE25F111EE14F10F0EDBC4E3F4E806B5
:10FFA200FCE26100F8F224F5C00E2416140E1124AE
:10FFB200D96E050E1220DA6EDF502412610090F421
:10FFC200BEF4125007E10F0E115CD8B0EBEFFFF058
:10FFD200EDEFFFF0F1EFFFF0114A122AF5EFFFF01B
:10FFE200000E126E000E116E000E016E000E026EF9
:0EFFF200000E036E000E046E12009EEFFFF074
:020000040020DA
:10000000FF0FFF0FFF0FFF0FFF0FFF0FFF0FFF0F80
:10001000FF0FFF0FFF0FFF0FFF0FFF0FFF0FFF0F70
:020000040030CA
:0A0000008CFEFFFC9FFFFFFFFFFFD7
:00000001FF
