:020000040000FA
:04000000FEEFFFF020
:020000040001F9
:10FE800012001200120001EE01F1110EEE6AE806F6
:10FE9000FDE100016BEFFFF0000EC66E800EBE6E3E
:10FEA000000E0401006F200EC76E000EBF6E000E24
:10FEB000086F1200000E096E000E0A6E000E0B6E27
:10FEC000000E0C6E000E056E000E066E000E076E24
:10FED000000E086E1200048E40ECFFF05AECFFF0AA
:10FEE0004CECFFF042ECFFF07CECFFF041ECFFF05B
:10FEF00074EFFFF0FEEFFFF00E508009BE6E610060
:10FF00003CF312F5200E12161250176E186A196A79
:10FF10001A6ABEEFFFF061003CF312F5200E1216D4
:10FF20001250176E186A196A1A6A200E17181810DC
:10FF300019101A10D8A49FEFFFF0A1EFFFF0BEEF49
:10FF4000FFF0115010100F1007E13F0E0E5CD8B0FB
:10FF5000ACEFFFF0AEEFFFF0B6EFFFF0010E0E26B4
:10FF6000000E0F2210221122BEEFFFF0000E0E6EC7
:10FF7000000E0F6E000E106E000E116E175018104E
:10FF800019101A10D8B4C7EFFFF0C9EFFFF08BEFCC
:10FF9000FFF0BF50CF18D8B4D0EFFFF0D2EFFFF092
:10FFA000DFEFFFF0BF0EBE60D8EFFFF0DAEFFFF03B
:10FFB000DDEFFFF0BE2ADFEFFFF0800EBE6E000E19
:10FFC000136E000E146E000E156E000E166EEFEF1F
:10FFD000FFF0010E1326000E1422152216221650D1
:10FFE00015100BE1400E135C1F0E1458D8A0FBEF48
:10FFF000FFF0FDEFFFF0E9EFFFF0120043EFFFF03D
:020000040020DA
:10000000FF0FFF0FFF0FFF0FFF0FFF0FFF0FFF0F80
:10001000FF0FFF0FFF0FFF0FFF0FFF0FFF0FFF0F70
:020000040030CA
:0A0000008CFEFFFC9FFFFFFFFFFFD7
:00000001FF
