:020000040000FA
:04000000FEEFFFF020
:020000040001F9
:10FF3600120012001200000EC66E800ECE6E000E6B
:10FF46000401006F120001EE01F10D0EEE6AE806E3
:10FF5600FDE10001C0EFFFF0000E096E000E0A6E13
:10FF6600000E0B6E000E0C6E000E056E000E066E79
:10FF7600000E076E000E086E1200048E9BECFFF05A
:10FF8600AFECFFF09EECFFF09DECFFF0D1ECFFF044
:10FF96009CECFFF0C9EFFFF0FEEFFFF0C00ECE6065
:10FFA600D7EFFFF0D9EFFFF0DCEFFFF0CE2ADEEF60
:10FFB600FFF0800ECE6E000E0E6E000E0F6E000E5F
:10FFC600106E000E116EEEEFFFF0010E0E26000E03
:10FFD6000F221022112211500DE1400E0E5C0D0E63
:10FFE6000F58030E1058D8A0FBEFFFF0FDEFFFF0FF
:0AFFF600E8EFFFF01200A6EFFFF0A5
:020000040020DA
:10000000FF0FFF0FFF0FFF0FFF0FFF0FFF0FFF0F80
:10001000FF0FFF0FFF0FFF0FFF0FFF0FFF0FFF0F70
:020000040030CA
:0A0000008CFEFFFC9FFFFFFFFFFFD7
:00000001FF
