:020000040000FA
:0400000081EF00F09C
:100008004901310131013101400031014000310124
:100018003101310131013101310131013101310148
:10002800310140004000400031013101310131010E
:100038003101310131014201FE003101310131014B
:1000480031013101310131014000400031013101FC
:1000580031013101310140003101310131013101FA
:1000680031013101310131013101310131013101F8
:1000780031013101310131014000310131013101DA
:1000880031013101310131013101310131013101D8
:10009800310131013101310140003101400040009E
:1000A80031013101310131013101310131013101B8
:1000B80031013101310131013101310131013101A8
:1000C8003101310131013101310131013101310198
:1000D8003101310131013101310131013101310188
:1000E8004000310131013101400040004000400032
:1000F8003101310131013101FF0050EF01F08083FE
:1001080086898C8F9295989B9EA2A5A7AAADB0B31D
:10011800B6B9BCBEC1C4C6C9CBCED0D3D5D7DADC3C
:10012800DEE0E2E4E6E8EAEBEDEEF0F1F3F4F5F612
:10013800F8F9FAFAFBFCFDFDFEFEFEFFFFFFFFFFEC
:10014800FFFFFEFEFEFDFDFCFBFAFAF9F8F6F5F4FA
:10015800F3F1F0EEEDEBEAE8E6E4E2E0DEDCDAD734
:10016800D5D3D0CECBC9C6C4C1BEBCB9B6B3B0AD69
:10017800AAA7A5A29E9B9895928F8C898683807C3E
:10018800797673706D6A6764615D5A5855524F4C41
:10019800494643413E3B393634312F2C2A28252302
:1001A800211F1D1B1917151412110F0E0C0B0A090C
:1001B8000706050504030202010101000000000012
:1001C80000000101010202030405050607090A0BE4
:1001D8000C0E0F1112141517191B1D1F212325288A
:1001E8002A2C2F313436393B3E414346494C4F5235
:1001F80055585A5D6164676A6D707376797C21EE33
:1002080001F111EE60F1390EDBC4E3F4E806FCE21B
:1002180021EE00F211EE9AF1390EDBC4E3F4E806A0
:10022800FCE20501D651020D9A0EF324D96E050E93
:10023800F420DA6ED451DE1807E1D551DE18D8A4BF
:1002480028EF01F02AEF01F04CEF01F0000ED56F16
:10025800000ED46F1D0ED619D8A435EF01F037EF74
:1002680001F039EF01F0000ED66FD62BD651020DF2
:10027800600EF324D96E050EF420DA6E610078F36F
:100288004CF5610074F34DF5010E4E6E97EC01F0DC
:100298000501D44BD52B1200060EF66E010EF76E33
:1002A800000EF86E01EE00F310EE00F10900F5C43F
:1002B800EEF4E550E150FAE1E250F8E1BC0EF66EDA
:1002C800030EF76E000EF86E01EE00F210EE3AF033
:1002D8000900F5C4EEF4E550E150FAE1820EF66E3D
:1002E800030EF76E000EF86E01EE01F110EE3AF013
:1002F8000900F5C4EEF4E550E150FAE10501D76BC9
:10030800D66BD56BD46B01EE3BF1100EEE6AE806A6
:10031800FDE10401080E5D6F000E5E6F000E5F6F59
:10032800000133EF02F003011E91800E4D5CD8A04E
:10033800A0EF01F0A2EF01F0A5EF01F07F0E4D6EE6
:100348004C684C1C4F6E4D1C506E5050496E4FC53A
:1003580048F5610024F51DF3610020F51CF34A906F
:100368004E50D8B4BAEF01F0BCEF01F0BDEF01F088
:100378004A80B198A1881E81120000003C0000004C
:100388003C000000280000002800000024000000B5
:1003980024000000280000002D0000002D000000AF
:1003A8002F0000002F00000035000000350000007D
:1003B8003C0000003200000232000002320000025D
:1003C8003200000232000002320000023200000453
:1003D8003200000232000002320000023200000245
:0E03E800320000023200000232000004E8037E
:1003F800610024F51DF3610020F51CF3000E47246D
:10040800D96EDA6A070EDA22DF5000017D6F040E1A
:100418004726B1984AB013EF02F015EF02F018EF33
:1004280002F0A19803011E911100000E436E000E08
:10043800446E000E456E000E466E000E3F6E000EB6
:10044800406E000E416E000E426E7D0E0301236F5A
:10045800010E266FB196F00E246FA18612000501D9
:10046800D78F94EC02F06FEC02F08EEC02F019ECEE
:1004780002F04BEC02F00501D79F03EC01F0BE9EA1
:100488007AEC02F0BE8E41EF02F081EF00F0C00E70
:10049800BE16900E03011A6F540E1B6F000E1F6FCD
:1004A800010E216F310E1E6F000E4D6E1C0E4C6E2C
:0A04B800010E4E6E97EC01F01200E9
:1004C400610060F34BF5010E3B26000E3C223D22F9
:1004D4003E2261002CF5D8F41100000E0401006FD7
:1004E400000EC66EA00E00017F6F000E7D6F12001D
:1004F4000501D78DD7BD81EF02F083EF02F07CEFC9
:1005040002F01200B1960501D79D010E4326000E9C
:100514004422452246221100D68AD68ED68C120059
:06052400AE901100120070
:020000040020DA
:10000000FF0FFF0FFF0FFF0FFF0FFF0FFF0FFF0F80
:10001000FF0FFF0FFF0FFF0FFF0FFF0FFF0FFF0F70
:020000040030CA
:0A0000008CFEFFFC9FFFFFFFFFFFD7
:00000001FF
