:020000040000FA
:04000000FEEFFFF020
:020000040001F9
:10FF520012001200120001EE01F10D0EEE6AE80627
:10FF6200FDE10001D6EFFFF0000EC66E800EBE6E00
:10FF7200000E0401006F200EC76E000ECF6E000E41
:10FF8200BF6E000E086F1200000E096E000E0A6EA0
:10FF9200000E0B6E000E0C6E000E056E000E066E4D
:10FFA200000E076E000E086E1200048EA9ECFFF020
:10FFB200C5ECFFF0B5ECFFF0ABECFFF0E7ECFFF0C7
:10FFC200AAECFFF0DFEFFFF0FEEFFFF0BF50CF181B
:10FFD200D8B4EEEFFFF0F0EFFFF0FDEFFFF0BF0E51
:10FFE200BE60F6EFFFF0F8EFFFF0FBEFFFF0BE2A86
:0EFFF200FDEFFFF0800EBE6E1200ACEFFFF0D0
:020000040020DA
:10000000FF0FFF0FFF0FFF0FFF0FFF0FFF0FFF0F80
:10001000FF0FFF0FFF0FFF0FFF0FFF0FFF0FFF0F70
:020000040030CA
:0A0000008CFEFFFC9FFFFFFFFFFFD7
:00000001FF
