:020000040000FA
:0400000081EF00F09C
:100008004901310131013101400031014000310124
:100018003101310131013101310131013101310148
:10002800310140004000400031013101310131010E
:100038003101310131014201F60031013101310153
:1000480031013101310131014000400031013101FC
:1000580031013101310140003101310131013101FA
:1000680031013101310131013101310131013101F8
:1000780031013101310131014000310131013101DA
:1000880031013101310131013101310131013101D8
:10009800310131013101310140003101400040009E
:1000A80031013101310131013101310131013101B8
:1000B80031013101310131013101310131013101A8
:1000C8003101310131013101310131013101310198
:1000D8003101310131013101310131013101310188
:1000E8004000310131013101400040004000400032
:1000F8003101310131013101FF0003EF01F080834B
:1001080086898C8F9295989B9EA2A5A7AAADB0B31D
:10011800B6B9BCBEC1C4C6C9CBCED0D3D5D7DADC3C
:10012800DEE0E2E4E6E8EAEBEDEEF0F1F3F4F5F612
:10013800F8F9FAFAFBFCFDFDFEFEFEFFFFFFFFFFEC
:10014800FFFFFEFEFEFDFDFCFBFAFAF9F8F6F5F4FA
:10015800F3F1F0EEEDEBEAE8E6E4E2E0DEDCDAD734
:10016800D5D3D0CECBC9C6C4C1BEBCB9B6B3B0AD69
:10017800AAA7A5A29E9B9895928F8C898683807C3E
:10018800797673706D6A6764615D5A5855524F4C41
:10019800494643413E3B393634312F2C2A28252302
:1001A800211F1D1B1917151412110F0E0C0B0A090C
:1001B8000706050504030202010101000000000012
:1001C80000000101010202030405050607090A0BE4
:1001D8000C0E0F1112141517191B1D1F212325288A
:1001E8002A2C2F313436393B3E414346494C4F5235
:1001F80055585A5D6164676A6D707376797C060E2E
:10020800F66E010EF76E000EF86E01EE00F310EEBA
:1002180000F10900F5C4EEF4E550E150FAE1E250CE
:10022800F8E1540EF66E030EF76E000EF86E01EE4E
:1002380000F210EE44F00900F5C4EEF4E550E15088
:10024800FAE1980EF66E030EF76E000EF86E01EEE8
:1002580001F110EE40F00900F5C4EEF4E550E1506C
:10026800FAE10501E56BE46B01EE41F1100EEE6A6F
:10027800E806FDE10401080E5D6F000E5E6F000EDA
:100288005F6F000123EF02F021EE00F211EEA0F102
:10029800430EDBC4E3F4E806FCE221EE01F111EEC3
:1002A80060F13F0EDBC4E3F4E806FCE20501E4512B
:1002B800020DA00EF324D96E050EF420DA6E61004B
:1002C80078F352F5610074F353F5010E546E80EC27
:1002D80001F0E80E536E000E526E51EC02F005016B
:1002E800E42BE429D8A47BEF01F07DEF01F07FEF48
:1002F80001F0000EE46F120003011E91800E535CA2
:10030800D8A089EF01F08BEF01F08EEF01F07F0E9E
:10031800536E5268521C556E531C566E56504F6E93
:1003280055C54EF561003CF51DF3610038F51CF329
:1003380050905450D8B4A3EF01F0A5EF01F0A6EF08
:1003480001F05080B198A1881E8112003C003C0049
:100358003C003C00280028002400240028002D0030
:100368002D002F002F00350035003C002800280004
:100378002D002D002F002F003500280028002D000B
:100388002D002F002F0035000000000000000000A5
:100398000002000200020002000200020004000243
:1003A8000002000200020002000200040002000233
:1003B8000002000200020002000400020002000223
:1003C8000002000200020004000200020002000213
:1003D80061003CF51DF3610038F51CF3000E4D2457
:1003E800D96EDA6A070EDA22DF5000017D6F040E3B
:1003F8004D26B19850B003EF02F005EF02F008EF78
:1004080002F0A19803011E911100000E496E000E22
:100418004A6E000E4B6E000E4C6E000E456E000EBE
:10042800466E000E476E000E486E7D0E0301236F68
:10043800010E266FB196F00E246FA18612000501F9
:10044800E58F94EC02F06FEC02F08EEC02F009EC10
:1004580002F03BEC02F00501E59F48EC01F0BE9E7E
:100468007AEC02F0BE8E31EF02F081EF00F0C00EA0
:10047800BE16900E03011A6F540E1B6F000E1F6FED
:10048800010E216F310E1E6F000E536E1C0E526E40
:10049800010E546E80EC01F0120054685568030197
:1004A8001A9F5250545E5350555A5550196F610057
:0A04B80050F518F3B19E1A8F1200E0
:1004C400610060F351F5010E4126000E42224322E1
:1004D4004422610044F5D8F41100000E0401006FB9
:1004E400000EC66EA00E00017F6F000E7D6F12001D
:1004F4000501E58DE5BD81EF02F083EF02F07CEFAD
:1005040002F01200B1960501E59D010E4926000E88
:100514004A224B224C221100D68AD68ED68C120047
:06052400AE901100120070
:020000040020DA
:10000000FF0FFF0FFF0FFF0FFF0FFF0FFF0FFF0F80
:10001000FF0FFF0FFF0FFF0FFF0FFF0FFF0FFF0F70
:020000040030CA
:0A0000008CFEFFFC9FFFFFFFFFFFD7
:00000001FF
